{
  "_format": "hh3-artifact-1",
  "contractName": "VaultNFT",
  "sourceName": "contracts/VaultNFT.sol",
  "abi": [
    {
      "inputs": [],
      "stateMutability": "nonpayable",
      "type": "constructor"
    },
    {
      "inputs": [
        {
          "internalType": "address",
          "name": "sender",
          "type": "address"
        },
        {
          "internalType": "uint256",
          "name": "tokenId",
          "type": "uint256"
        },
        {
          "internalType": "address",
          "name": "owner",
          "type": "address"
        }
      ],
      "name": "ERC721IncorrectOwner",
      "type": "error"
    },
    {
      "inputs": [
        {
          "internalType": "address",
          "name": "operator",
          "type": "address"
        },
        {
          "internalType": "uint256",
          "name": "tokenId",
          "type": "uint256"
        }
      ],
      "name": "ERC721InsufficientApproval",
      "type": "error"
    },
    {
      "inputs": [
        {
          "internalType": "address",
          "name": "approver",
          "type": "address"
        }
      ],
      "name": "ERC721InvalidApprover",
      "type": "error"
    },
    {
      "inputs": [
        {
          "internalType": "address",
          "name": "operator",
          "type": "address"
        }
      ],
      "name": "ERC721InvalidOperator",
      "type": "error"
    },
    {
      "inputs": [
        {
          "internalType": "address",
          "name": "owner",
          "type": "address"
        }
      ],
      "name": "ERC721InvalidOwner",
      "type": "error"
    },
    {
      "inputs": [
        {
          "internalType": "address",
          "name": "receiver",
          "type": "address"
        }
      ],
      "name": "ERC721InvalidReceiver",
      "type": "error"
    },
    {
      "inputs": [
        {
          "internalType": "address",
          "name": "sender",
          "type": "address"
        }
      ],
      "name": "ERC721InvalidSender",
      "type": "error"
    },
    {
      "inputs": [
        {
          "internalType": "uint256",
          "name": "tokenId",
          "type": "uint256"
        }
      ],
      "name": "ERC721NonexistentToken",
      "type": "error"
    },
    {
      "inputs": [],
      "name": "InvalidAddress",
      "type": "error"
    },
    {
      "inputs": [],
      "name": "InvalidTokenURI",
      "type": "error"
    },
    {
      "inputs": [],
      "name": "NotMinter",
      "type": "error"
    },
    {
      "inputs": [
        {
          "internalType": "address",
          "name": "owner",
          "type": "address"
        }
      ],
      "name": "OwnableInvalidOwner",
      "type": "error"
    },
    {
      "inputs": [
        {
          "internalType": "address",
          "name": "account",
          "type": "address"
        }
      ],
      "name": "OwnableUnauthorizedAccount",
      "type": "error"
    },
    {
      "anonymous": false,
      "inputs": [
        {
          "indexed": true,
          "internalType": "address",
          "name": "owner",
          "type": "address"
        },
        {
          "indexed": true,
          "internalType": "address",
          "name": "approved",
          "type": "address"
        },
        {
          "indexed": true,
          "internalType": "uint256",
          "name": "tokenId",
          "type": "uint256"
        }
      ],
      "name": "Approval",
      "type": "event"
    },
    {
      "anonymous": false,
      "inputs": [
        {
          "indexed": true,
          "internalType": "address",
          "name": "owner",
          "type": "address"
        },
        {
          "indexed": true,
          "internalType": "address",
          "name": "operator",
          "type": "address"
        },
        {
          "indexed": false,
          "internalType": "bool",
          "name": "approved",
          "type": "bool"
        }
      ],
      "name": "ApprovalForAll",
      "type": "event"
    },
    {
      "anonymous": false,
      "inputs": [
        {
          "indexed": false,
          "internalType": "uint256",
          "name": "_fromTokenId",
          "type": "uint256"
        },
        {
          "indexed": false,
          "internalType": "uint256",
          "name": "_toTokenId",
          "type": "uint256"
        }
      ],
      "name": "BatchMetadataUpdate",
      "type": "event"
    },
    {
      "anonymous": false,
      "inputs": [
        {
          "indexed": false,
          "internalType": "uint256",
          "name": "_tokenId",
          "type": "uint256"
        }
      ],
      "name": "MetadataUpdate",
      "type": "event"
    },
    {
      "anonymous": false,
      "inputs": [
        {
          "indexed": true,
          "internalType": "address",
          "name": "to",
          "type": "address"
        },
        {
          "indexed": true,
          "internalType": "uint256",
          "name": "tokenId",
          "type": "uint256"
        },
        {
          "indexed": false,
          "internalType": "string",
          "name": "tokenURI",
          "type": "string"
        },
        {
          "indexed": false,
          "internalType": "uint256",
          "name": "timestamp",
          "type": "uint256"
        }
      ],
      "name": "Minted",
      "type": "event"
    },
    {
      "anonymous": false,
      "inputs": [
        {
          "indexed": true,
          "internalType": "address",
          "name": "minter",
          "type": "address"
        }
      ],
      "name": "MinterAdded",
      "type": "event"
    },
    {
      "anonymous": false,
      "inputs": [
        {
          "indexed": true,
          "internalType": "address",
          "name": "minter",
          "type": "address"
        }
      ],
      "name": "MinterRemoved",
      "type": "event"
    },
    {
      "anonymous": false,
      "inputs": [
        {
          "indexed": true,
          "internalType": "address",
          "name": "previousOwner",
          "type": "address"
        },
        {
          "indexed": true,
          "internalType": "address",
          "name": "newOwner",
          "type": "address"
        }
      ],
      "name": "OwnershipTransferred",
      "type": "event"
    },
    {
      "anonymous": false,
      "inputs": [
        {
          "indexed": true,
          "internalType": "address",
          "name": "from",
          "type": "address"
        },
        {
          "indexed": true,
          "internalType": "address",
          "name": "to",
          "type": "address"
        },
        {
          "indexed": true,
          "internalType": "uint256",
          "name": "tokenId",
          "type": "uint256"
        }
      ],
      "name": "Transfer",
      "type": "event"
    },
    {
      "inputs": [
        {
          "internalType": "address",
          "name": "minter",
          "type": "address"
        }
      ],
      "name": "addMinter",
      "outputs": [],
      "stateMutability": "nonpayable",
      "type": "function"
    },
    {
      "inputs": [
        {
          "internalType": "address",
          "name": "to",
          "type": "address"
        },
        {
          "internalType": "uint256",
          "name": "tokenId",
          "type": "uint256"
        }
      ],
      "name": "approve",
      "outputs": [],
      "stateMutability": "nonpayable",
      "type": "function"
    },
    {
      "inputs": [
        {
          "internalType": "address",
          "name": "owner",
          "type": "address"
        }
      ],
      "name": "balanceOf",
      "outputs": [
        {
          "internalType": "uint256",
          "name": "",
          "type": "uint256"
        }
      ],
      "stateMutability": "view",
      "type": "function"
    },
    {
      "inputs": [
        {
          "internalType": "uint256",
          "name": "tokenId",
          "type": "uint256"
        }
      ],
      "name": "getApproved",
      "outputs": [
        {
          "internalType": "address",
          "name": "",
          "type": "address"
        }
      ],
      "stateMutability": "view",
      "type": "function"
    },
    {
      "inputs": [
        {
          "internalType": "address",
          "name": "owner",
          "type": "address"
        },
        {
          "internalType": "address",
          "name": "operator",
          "type": "address"
        }
      ],
      "name": "isApprovedForAll",
      "outputs": [
        {
          "internalType": "bool",
          "name": "",
          "type": "bool"
        }
      ],
      "stateMutability": "view",
      "type": "function"
    },
    {
      "inputs": [
        {
          "internalType": "address",
          "name": "account",
          "type": "address"
        }
      ],
      "name": "isMinter",
      "outputs": [
        {
          "internalType": "bool",
          "name": "",
          "type": "bool"
        }
      ],
      "stateMutability": "view",
      "type": "function"
    },
    {
      "inputs": [
        {
          "internalType": "address",
          "name": "to",
          "type": "address"
        },
        {
          "internalType": "string",
          "name": "tokenURI",
          "type": "string"
        }
      ],
      "name": "mint",
      "outputs": [
        {
          "internalType": "uint256",
          "name": "",
          "type": "uint256"
        }
      ],
      "stateMutability": "nonpayable",
      "type": "function"
    },
    {
      "inputs": [
        {
          "internalType": "address",
          "name": "",
          "type": "address"
        }
      ],
      "name": "minters",
      "outputs": [
        {
          "internalType": "bool",
          "name": "",
          "type": "bool"
        }
      ],
      "stateMutability": "view",
      "type": "function"
    },
    {
      "inputs": [],
      "name": "name",
      "outputs": [
        {
          "internalType": "string",
          "name": "",
          "type": "string"
        }
      ],
      "stateMutability": "view",
      "type": "function"
    },
    {
      "inputs": [],
      "name": "owner",
      "outputs": [
        {
          "internalType": "address",
          "name": "",
          "type": "address"
        }
      ],
      "stateMutability": "view",
      "type": "function"
    },
    {
      "inputs": [
        {
          "internalType": "uint256",
          "name": "tokenId",
          "type": "uint256"
        }
      ],
      "name": "ownerOf",
      "outputs": [
        {
          "internalType": "address",
          "name": "",
          "type": "address"
        }
      ],
      "stateMutability": "view",
      "type": "function"
    },
    {
      "inputs": [
        {
          "internalType": "address",
          "name": "minter",
          "type": "address"
        }
      ],
      "name": "removeMinter",
      "outputs": [],
      "stateMutability": "nonpayable",
      "type": "function"
    },
    {
      "inputs": [],
      "name": "renounceOwnership",
      "outputs": [],
      "stateMutability": "nonpayable",
      "type": "function"
    },
    {
      "inputs": [
        {
          "internalType": "address",
          "name": "from",
          "type": "address"
        },
        {
          "internalType": "address",
          "name": "to",
          "type": "address"
        },
        {
          "internalType": "uint256",
          "name": "tokenId",
          "type": "uint256"
        }
      ],
      "name": "safeTransferFrom",
      "outputs": [],
      "stateMutability": "nonpayable",
      "type": "function"
    },
    {
      "inputs": [
        {
          "internalType": "address",
          "name": "from",
          "type": "address"
        },
        {
          "internalType": "address",
          "name": "to",
          "type": "address"
        },
        {
          "internalType": "uint256",
          "name": "tokenId",
          "type": "uint256"
        },
        {
          "internalType": "bytes",
          "name": "data",
          "type": "bytes"
        }
      ],
      "name": "safeTransferFrom",
      "outputs": [],
      "stateMutability": "nonpayable",
      "type": "function"
    },
    {
      "inputs": [
        {
          "internalType": "address",
          "name": "operator",
          "type": "address"
        },
        {
          "internalType": "bool",
          "name": "approved",
          "type": "bool"
        }
      ],
      "name": "setApprovalForAll",
      "outputs": [],
      "stateMutability": "nonpayable",
      "type": "function"
    },
    {
      "inputs": [
        {
          "internalType": "bytes4",
          "name": "interfaceId",
          "type": "bytes4"
        }
      ],
      "name": "supportsInterface",
      "outputs": [
        {
          "internalType": "bool",
          "name": "",
          "type": "bool"
        }
      ],
      "stateMutability": "view",
      "type": "function"
    },
    {
      "inputs": [],
      "name": "symbol",
      "outputs": [
        {
          "internalType": "string",
          "name": "",
          "type": "string"
        }
      ],
      "stateMutability": "view",
      "type": "function"
    },
    {
      "inputs": [
        {
          "internalType": "uint256",
          "name": "tokenId",
          "type": "uint256"
        }
      ],
      "name": "tokenURI",
      "outputs": [
        {
          "internalType": "string",
          "name": "",
          "type": "string"
        }
      ],
      "stateMutability": "view",
      "type": "function"
    },
    {
      "inputs": [],
      "name": "totalSupply",
      "outputs": [
        {
          "internalType": "uint256",
          "name": "",
          "type": "uint256"
        }
      ],
      "stateMutability": "view",
      "type": "function"
    },
    {
      "inputs": [
        {
          "internalType": "address",
          "name": "from",
          "type": "address"
        },
        {
          "internalType": "address",
          "name": "to",
          "type": "address"
        },
        {
          "internalType": "uint256",
          "name": "tokenId",
          "type": "uint256"
        }
      ],
      "name": "transferFrom",
      "outputs": [],
      "stateMutability": "nonpayable",
      "type": "function"
    },
    {
      "inputs": [
        {
          "internalType": "address",
          "name": "newOwner",
          "type": "address"
        }
      ],
      "name": "transferOwnership",
      "outputs": [],
      "stateMutability": "nonpayable",
      "type": "function"
    }
  ],
  "bytecode": "0x6080604052600160085534801562000015575f80fd5b50336040518060400160405280600981526020016815985d5b1d0813919560ba1b815250604051806040016040528060048152602001631593919560e21b815250815f9081620000669190620001c2565b506001620000758282620001c2565b5050506001600160a01b038116620000a657604051631e4fbdf760e01b81525f600482015260240160405180910390fd5b620000b181620000d1565b50335f908152600960205260409020805460ff191660011790556200028a565b600780546001600160a01b038381166001600160a01b0319831681179093556040519116919082907f8be0079c531659141344cd1fd0a4f28419497f9722a3daafe3b4186f6b6457e0905f90a35050565b634e487b7160e01b5f52604160045260245ffd5b600181811c908216806200014b57607f821691505b6020821081036200016a57634e487b7160e01b5f52602260045260245ffd5b50919050565b601f821115620001bd575f81815260208120601f850160051c81016020861015620001985750805b601f850160051c820191505b81811015620001b957828155600101620001a4565b5050505b505050565b81516001600160401b03811115620001de57620001de62000122565b620001f681620001ef845462000136565b8462000170565b602080601f8311600181146200022c575f8415620002145750858301515b5f19600386901b1c1916600185901b178555620001b9565b5f85815260208120601f198616915b828110156200025c578886015182559484019460019091019084016200023b565b50858210156200027a57878501515f19600388901b60f8161c191681555b5050505050600190811b01905550565b61164080620002985f395ff3fe608060405234801561000f575f80fd5b506004361061013d575f3560e01c80638da5cb5b116100b4578063b88d4fde11610079578063b88d4fde146102a5578063c87b56dd146102b8578063d0def521146102cb578063e985e9c5146102de578063f2fde38b146102f1578063f46eccc414610304575f80fd5b80638da5cb5b1461023b57806395d89b411461024c578063983b2d5614610254578063a22cb46514610267578063aa271e1a1461027a575f80fd5b806323b872dd1161010557806323b872dd146101d45780633092afd5146101e757806342842e0e146101fa5780636352211e1461020d57806370a0823114610220578063715018a614610233575f80fd5b806301ffc9a71461014157806306fdde0314610169578063081812fc1461017e578063095ea7b3146101a957806318160ddd146101be575b5f80fd5b61015461014f366004611100565b610326565b60405190151581526020015b60405180910390f35b610171610350565b6040516101609190611168565b61019161018c36600461117a565b6103df565b6040516001600160a01b039091168152602001610160565b6101bc6101b73660046111ac565b610406565b005b6101c6610415565b604051908152602001610160565b6101bc6101e23660046111d4565b61042a565b6101bc6101f536600461120d565b6104b8565b6101bc6102083660046111d4565b610508565b61019161021b36600461117a565b610527565b6101c661022e36600461120d565b610531565b6101bc610576565b6007546001600160a01b0316610191565b610171610589565b6101bc61026236600461120d565b610598565b6101bc610275366004611226565b610612565b61015461028836600461120d565b6001600160a01b03165f9081526009602052604090205460ff1690565b6101bc6102b33660046112e6565b61061c565b6101716102c636600461117a565b610634565b6101c66102d936600461135d565b61073f565b6101546102ec3660046113bb565b61082b565b6101bc6102ff36600461120d565b610858565b61015461031236600461120d565b60096020525f908152604090205460ff1681565b5f6001600160e01b03198216632483248360e11b148061034a575061034a82610895565b92915050565b60605f805461035e906113ec565b80601f016020809104026020016040519081016040528092919081815260200182805461038a906113ec565b80156103d55780601f106103ac576101008083540402835291602001916103d5565b820191905f5260205f20905b8154815290600101906020018083116103b857829003601f168201915b5050505050905090565b5f6103e9826108e4565b505f828152600460205260409020546001600160a01b031661034a565b61041182823361091c565b5050565b5f60016008546104259190611438565b905090565b6001600160a01b03821661045857604051633250574960e11b81525f60048201526024015b60405180910390fd5b5f610464838333610929565b9050836001600160a01b0316816001600160a01b0316146104b2576040516364283d7b60e01b81526001600160a01b038086166004830152602482018490528216604482015260640161044f565b50505050565b6104c0610a1b565b6001600160a01b0381165f81815260096020526040808220805460ff19169055517fe94479a9f7e1952cc78f2d6baab678adc1b772d936c6583def489e524cb666929190a250565b61052283838360405180602001604052805f81525061061c565b505050565b5f61034a826108e4565b5f6001600160a01b03821661055b576040516322718ad960e21b81525f600482015260240161044f565b506001600160a01b03165f9081526003602052604090205490565b61057e610a1b565b6105875f610a48565b565b60606001805461035e906113ec565b6105a0610a1b565b6001600160a01b0381166105c75760405163e6c4247b60e01b815260040160405180910390fd5b6001600160a01b0381165f81815260096020526040808220805460ff19166001179055517f6ae172837ea30b801fbfcdd4108aa1d5bf8ff775444fd70256b44e6bf3dfc3f69190a250565b6104118282610a99565b61062784848461042a565b6104b23385858585610aa4565b606061063f826108e4565b505f8281526006602052604081208054610658906113ec565b80601f0160208091040260200160405190810160405280929190818152602001828054610684906113ec565b80156106cf5780601f106106a6576101008083540402835291602001916106cf565b820191905f5260205f20905b8154815290600101906020018083116106b257829003601f168201915b505050505090505f6106eb60408051602081019091525f815290565b905080515f036106fc575092915050565b81511561072e57808260405160200161071692919061144b565b60405160208183030381529060405292505050919050565b61073784610bcc565b949350505050565b335f9081526009602052604081205460ff1661076e57604051633e34a41b60e21b815260040160405180910390fd5b6001600160a01b0383166107955760405163e6c4247b60e01b815260040160405180910390fd5b81515f036107b6576040516313f04adb60e01b815260040160405180910390fd5b600880549081905f6107c783611479565b91905055506107d68482610c3d565b6107e08184610c56565b80846001600160a01b03167ff5c82eda717141c5f0cfeb894e7b7819c158a337b62ec13d412aecad30b0ad9e854260405161081c929190611491565b60405180910390a39392505050565b6001600160a01b039182165f90815260056020908152604080832093909416825291909152205460ff1690565b610860610a1b565b6001600160a01b03811661088957604051631e4fbdf760e01b81525f600482015260240161044f565b61089281610a48565b50565b5f6001600160e01b031982166380ac58cd60e01b14806108c557506001600160e01b03198216635b5e139f60e01b145b8061034a57506301ffc9a760e01b6001600160e01b031983161461034a565b5f818152600260205260408120546001600160a01b03168061034a57604051637e27328960e01b81526004810184905260240161044f565b6105228383836001610ca5565b5f828152600260205260408120546001600160a01b039081169083161561095557610955818486610da9565b6001600160a01b0381161561098f576109705f855f80610ca5565b6001600160a01b0381165f90815260036020526040902080545f190190555b6001600160a01b038516156109bd576001600160a01b0385165f908152600360205260409020805460010190555b5f8481526002602052604080822080546001600160a01b0319166001600160a01b0389811691821790925591518793918516917fddf252ad1be2c89b69c2b068fc378daa952ba7f163c4a11628f55a4df523b3ef91a4949350505050565b6007546001600160a01b031633146105875760405163118cdaa760e01b815233600482015260240161044f565b600780546001600160a01b038381166001600160a01b0319831681179093556040519116919082907f8be0079c531659141344cd1fd0a4f28419497f9722a3daafe3b4186f6b6457e0905f90a35050565b610411338383610e0d565b6001600160a01b0383163b15610bc557604051630a85bd0160e11b81526001600160a01b0384169063150b7a0290610ae69088908890879087906004016114b2565b6020604051808303815f875af1925050508015610b20575060408051601f3d908101601f19168201909252610b1d918101906114ee565b60015b610b87573d808015610b4d576040519150601f19603f3d011682016040523d82523d5f602084013e610b52565b606091505b5080515f03610b7f57604051633250574960e11b81526001600160a01b038516600482015260240161044f565b805160208201fd5b6001600160e01b03198116630a85bd0160e11b14610bc357604051633250574960e11b81526001600160a01b038516600482015260240161044f565b505b5050505050565b6060610bd7826108e4565b505f610bed60408051602081019091525f815290565b90505f815111610c0b5760405180602001604052805f815250610c36565b80610c1584610eab565b604051602001610c2692919061144b565b6040516020818303038152906040525b9392505050565b610411828260405180602001604052805f815250610f3b565b5f828152600660205260409020610c6d828261154e565b506040518281527ff8e1a15aba9398e019f0b49df1a4fde98ee17ae345cb5f6b5e2c27f5033e8ce79060200160405180910390a15050565b8080610cb957506001600160a01b03821615155b15610d7a575f610cc8846108e4565b90506001600160a01b03831615801590610cf45750826001600160a01b0316816001600160a01b031614155b8015610d075750610d05818461082b565b155b15610d305760405163a9fbf51f60e01b81526001600160a01b038416600482015260240161044f565b8115610d785783856001600160a01b0316826001600160a01b03167f8c5be1e5ebec7d5bd14f71427d1e84f3dd0314c0f7b2291e5b200ac8c7c3b92560405160405180910390a45b505b50505f90815260046020526040902080546001600160a01b0319166001600160a01b0392909216919091179055565b610db4838383610f52565b610522576001600160a01b038316610de257604051637e27328960e01b81526004810182905260240161044f565b60405163177e802f60e01b81526001600160a01b03831660048201526024810182905260440161044f565b6001600160a01b038216610e3f57604051630b61174360e31b81526001600160a01b038316600482015260240161044f565b6001600160a01b038381165f81815260056020908152604080832094871680845294825291829020805460ff191686151590811790915591519182527f17307eab39ab6107e8899845ad3d59bd9653f200f220920489ca2b5937696c31910160405180910390a3505050565b60605f610eb783610fb3565b60010190505f8167ffffffffffffffff811115610ed657610ed661125f565b6040519080825280601f01601f191660200182016040528015610f00576020820181803683370190505b5090508181016020015b5f19016f181899199a1a9b1b9c1cb0b131b232b360811b600a86061a8153600a8504945084610f0a57509392505050565b610f45838361108a565b610522335f858585610aa4565b5f6001600160a01b038316158015906107375750826001600160a01b0316846001600160a01b03161480610f8b5750610f8b848461082b565b806107375750505f908152600460205260409020546001600160a01b03908116911614919050565b5f8072184f03e93ff9f4daa797ed6e38ed64bf6a1f0160401b8310610ff15772184f03e93ff9f4daa797ed6e38ed64bf6a1f0160401b830492506040015b6d04ee2d6d415b85acef8100000000831061101d576d04ee2d6d415b85acef8100000000830492506020015b662386f26fc10000831061103b57662386f26fc10000830492506010015b6305f5e1008310611053576305f5e100830492506008015b612710831061106757612710830492506004015b60648310611079576064830492506002015b600a831061034a5760010192915050565b6001600160a01b0382166110b357604051633250574960e11b81525f600482015260240161044f565b5f6110bf83835f610929565b90506001600160a01b03811615610522576040516339e3563760e11b81525f600482015260240161044f565b6001600160e01b031981168114610892575f80fd5b5f60208284031215611110575f80fd5b8135610c36816110eb565b5f5b8381101561113557818101518382015260200161111d565b50505f910152565b5f815180845261115481602086016020860161111b565b601f01601f19169290920160200192915050565b602081525f610c36602083018461113d565b5f6020828403121561118a575f80fd5b5035919050565b80356001600160a01b03811681146111a7575f80fd5b919050565b5f80604083850312156111bd575f80fd5b6111c683611191565b946020939093013593505050565b5f805f606084860312156111e6575f80fd5b6111ef84611191565b92506111fd60208501611191565b9150604084013590509250925092565b5f6020828403121561121d575f80fd5b610c3682611191565b5f8060408385031215611237575f80fd5b61124083611191565b915060208301358015158114611254575f80fd5b809150509250929050565b634e487b7160e01b5f52604160045260245ffd5b5f67ffffffffffffffff8084111561128d5761128d61125f565b604051601f8501601f19908116603f011681019082821181831017156112b5576112b561125f565b816040528093508581528686860111156112cd575f80fd5b858560208301375f602087830101525050509392505050565b5f805f80608085870312156112f9575f80fd5b61130285611191565b935061131060208601611191565b925060408501359150606085013567ffffffffffffffff811115611332575f80fd5b8501601f81018713611342575f80fd5b61135187823560208401611273565b91505092959194509250565b5f806040838503121561136e575f80fd5b61137783611191565b9150602083013567ffffffffffffffff811115611392575f80fd5b8301601f810185136113a2575f80fd5b6113b185823560208401611273565b9150509250929050565b5f80604083850312156113cc575f80fd5b6113d583611191565b91506113e360208401611191565b90509250929050565b600181811c9082168061140057607f821691505b60208210810361141e57634e487b7160e01b5f52602260045260245ffd5b50919050565b634e487b7160e01b5f52601160045260245ffd5b8181038181111561034a5761034a611424565b5f835161145c81846020880161111b565b83519083019061147081836020880161111b565b01949350505050565b5f6001820161148a5761148a611424565b5060010190565b604081525f6114a3604083018561113d565b90508260208301529392505050565b6001600160a01b03858116825284166020820152604081018390526080606082018190525f906114e49083018461113d565b9695505050505050565b5f602082840312156114fe575f80fd5b8151610c36816110eb565b601f821115610522575f81815260208120601f850160051c8101602086101561152f5750805b601f850160051c820191505b81811015610bc35782815560010161153b565b815167ffffffffffffffff8111156115685761156861125f565b61157c8161157684546113ec565b84611509565b602080601f8311600181146115af575f84156115985750858301515b5f19600386901b1c1916600185901b178555610bc3565b5f85815260208120601f198616915b828110156115dd578886015182559484019460019091019084016115be565b50858210156115fa57878501515f19600388901b60f8161c191681555b5050505050600190811b0190555056fea26469706673582212206757e870334ab30609d6d66fb78b2cc07b2f10b1ddf147b95cd758f2cd10491664736f6c63430008140033",
  "linkReferences": {},
  "deployedLinkReferences": {},
  "immutableReferences": {},
  "inputSourceName": "project/contracts/VaultNFT.sol",
  "buildInfoId": "solc-0_8_20-265442eab3f07d698f63478c1b61f4b438ab6cd3"
}